{"address":"0x384A994E76A321eC0675b870d975855C021fEC9A","bytecode":"0x60c06040526003805460ff19908116909155600060065560078054909116905534801561002b57600080fd5b507fb3dccb4cf7a26f6cf6b120cf5a73875b7bbc655b00000000000000000000000060a0527f01be23585060835e02b77ef475b0cc51aa1e07090000000000000000000000006080527f2ed0feb3e7fd2022120aa84fab1945545a9f2ffc9076fd6156fa96eaff4c131160015567016345785d8a0000600255601380546001600160a01b0319908116737a250d5630b4cf539739df2c5dacb4c659f2488d1790915560148054821673c7ad46e0b8a400bb3c915120d284aafba8fc473517905560158054909116738b22f85d0c844cf793690f6d9dfe9f11ddb354491790557301be23585060835e02b77ef475b0cc51aa1e070973b3dccb4cf7a26f6cf6b120cf5a73875b7bbc655b61282861015b600039806112c55280611e3452508061188e5280611e0552506128286000f3fe60806040526004361061023f5760003560e01c8063942b765a1161012e578063c4b09188116100ab578063f7cb789a1161006f578063f7cb789a14610601578063f8b2cb4f14610616578063fb2f895d14610636578063fc735e991461064b578063fe75ff541461066057610246565b8063c4b091881461059c578063ce36a109146105bc578063d0e30db0146105cf578063ed7a4e0b146105d7578063f4b9fa75146105ec57610246565b8063b1434b54116100f2578063b1434b541461051d578063b31610db14610532578063bc6b888b14610552578063be1c766b14610572578063bf428ace1461058757610246565b8063942b765a1461049157806394985ddd146104b3578063a6676ba0146104d3578063ada8b83d146104e8578063afeaac191461050857610246565b806360b5bb3f116101bc578063848836d011610180578063848836d01461041f578063853828b61461043f57806387f8ab26146104545780638a19c8bc1461046757806390704b291461047c57610246565b806360b5bb3f146103885780636339d7cf146103a8578063735de9f7146103c8578063751b323a146103ea5780637de1e5361461040a57610246565b80632e13a30d116102035780632e13a30d146102ef5780632e1a7d4d14610304578063395160ec146103245780634e69d56014610339578063561a5aca1461035b57610246565b80630a3b0a4f1461024b5780630b76619b1461028157806328102e541461029657806329d35328146102b85780632a7b1541146102da57610246565b3661024657005b600080fd5b34801561025757600080fd5b5061026b610266366004611fe5565b610680565b60405161027891906123c2565b60405180910390f35b34801561028d57600080fd5b5061026b610768565b3480156102a257600080fd5b506102ab610771565b60405161027891906123cd565b3480156102c457600080fd5b506102d86102d3366004612199565b610777565b005b3480156102e657600080fd5b506102ab6108ec565b3480156102fb57600080fd5b506102d86108f2565b34801561031057600080fd5b506102d861031f366004612199565b6109c8565b34801561033057600080fd5b506102ab610a7d565b34801561034557600080fd5b5061034e610ba6565b60405161027891906123fa565b34801561036757600080fd5b5061037b610376366004612199565b610baf565b604051610278919061237e565b34801561039457600080fd5b506102d86103a336600461201d565b610c43565b3480156103b457600080fd5b506102d86103c3366004612199565b610c7b565b3480156103d457600080fd5b506103dd610dd9565b6040516102789190612299565b3480156103f657600080fd5b5061026b610405366004611fe5565b610de8565b34801561041657600080fd5b506102d8610e1d565b34801561042b57600080fd5b506102ab61043a366004612199565b610f4f565b34801561044b57600080fd5b506102d86110cf565b6102d8610462366004612199565b611155565b34801561047357600080fd5b506102ab6111c9565b34801561048857600080fd5b506102ab6111cf565b34801561049d57600080fd5b506104a6611255565b604051610278919061236b565b3480156104bf57600080fd5b506102d86104ce366004612178565b6112ba565b3480156104df57600080fd5b506102d861130c565b3480156104f457600080fd5b5061037b610503366004612199565b6113e9565b34801561051457600080fd5b5061026b611406565b34801561052957600080fd5b506103dd61144a565b34801561053e57600080fd5b506102ab61054d366004611fe5565b611459565b34801561055e57600080fd5b506103dd61056d366004612199565b611474565b34801561057e57600080fd5b506102ab6114a1565b34801561059357600080fd5b506102d86114ab565b3480156105a857600080fd5b506102ab6105b7366004612199565b6114ba565b6102d86105ca3660046121c9565b61164e565b6102d86116c3565b3480156105e357600080fd5b506103dd611743565b3480156105f857600080fd5b506103dd611757565b34801561060d57600080fd5b506102ab611766565b34801561062257600080fd5b506102ab610631366004611fe5565b61176c565b34801561064257600080fd5b506102ab611787565b34801561065757600080fd5b506102d86117b8565b34801561066c57600080fd5b506102ab61067b366004612199565b611887565b6001600160a01b0381166000908152600c602052604081205460ff16156106a957506000610763565b50600980546001600160a01b0383166000818152600d6020908152604080832094909455600c8152838220805460ff1916600190811790915585548082019096557f6e1540171b6c0c960b71a7020d9f60077f6af931a8bbf590da0223dacf75c7af90950180546001600160a01b03199081168517909155600b80548088019091557f0175b7a638427703f0dbe7bb9bbf987a2551717b34e79f33b5b1008d1fa01db901805490911684179055918152600e909152908120555b919050565b60075460ff1681565b60085481565b60028104600061078682611955565b60145460135460405163095ea7b360e01b81529293506001600160a01b039182169263095ea7b3926107be92169086906004016122ad565b602060405180830381600087803b1580156107d857600080fd5b505af11580156107ec573d6000803e3d6000fd5b505050506040513d601f19601f820116820180604052508101906108109190612158565b6108355760405162461bcd60e51b815260040161082c9061264d565b60405180910390fd5b60135460405163f305d71960e01b81526001600160a01b039091169063f305d7199083906108929073c7ad46e0b8a400bb3c915120d284aafba8fc47359087906611c37937e07fff1982019085903090600f420190600401612330565b6060604051808303818588803b1580156108ab57600080fd5b505af11580156108bf573d6000803e3d6000fd5b50505050506040513d601f19601f820116820180604052508101906108e4919061221b565b505050505050565b60055481565b6012546108fe906114ba565b60088190556007805460ff191690556006546040517f8317d9222511a7f7bc22dd91f4aa793e06ea6613f8aa605607f0bbd091c88aff9261094092909161228b565b60405180910390a1600f54601054111561095957610991565b60646005546066028161096857fe5b04600e600061097681611474565b6001600160a01b031681526020810191909152604001600020555b6064600554606602816109a057fe5b600880549290910490910390556003805460ff19168117905560006109c442611887565b5050565b336000908152600e6020526040902054808211156109f85760405162461bcd60e51b815260040161082c9061261f565b336000818152600e6020526040808220805486900390555184156108fc0291859190818181858888f19350505050158015610a37573d6000803e3d6000fd5b50336001600160a01b03167f884edad9ce6fa2440d8a54cc123490eb96d2768479d49ff9c7366125a942436483604051610a7191906123cd565b60405180910390a25050565b600080610a886114a1565b60055481610a9257fe5b04905060015b610aa06114a1565b8111610ba0576000610ab182611474565b6001600160a01b0381166000908152600e60205260409020549091508311610b38576001600160a01b0381166000818152600e602052604090819020805486900390556006549051958501957fda48cb88f08166033de7ce0df8e720f839529e1d13882821a01542fbedd41f5891610b2b9188919061228b565b60405180910390a2610b97565b6001600160a01b0381166000818152600e60205260408082208054929055600654905196909101957fda48cb88f08166033de7ce0df8e720f839529e1d13882821a01542fbedd41f5891610b8e9188919061228b565b60405180910390a25b50600101610a98565b50505b90565b60035460ff1690565b6013546060906001600160a01b031663d06ca61f83610bcc611ab8565b6040518363ffffffff1660e01b8152600401610be9929190612701565b60006040518083038186803b158015610c0157600080fd5b505afa158015610c15573d6000803e3d6000fd5b505050506040513d6000823e601f3d908101601f19168201604052610c3d91908101906120c5565b92915050565b60005b8251811015610c7457610c6b838281518110610c5e57fe5b6020026020010151610680565b50600101610c46565b5060055550565b60155460135460405163095ea7b360e01b81526001600160a01b039283169263095ea7b392610cb19291169085906004016122ad565b602060405180830381600087803b158015610ccb57600080fd5b505af1158015610cdf573d6000803e3d6000fd5b505050506040513d601f19601f82011682018060405250810190610d039190612158565b610d1f5760405162461bcd60e51b815260040161082c9061264d565b601354604051629d473b60e21b815260009182916001600160a01b03909116906302751cec90610d749073c7ad46e0b8a400bb3c915120d284aafba8fc4735908790869081903090600f420190600401612330565b6040805180830381600087803b158015610d8d57600080fd5b505af1158015610da1573d6000803e3d6000fd5b505050506040513d601f19601f82011682018060405250810190610dc591906121f8565b9092509050610dd381611bc4565b50505050565b6013546001600160a01b031681565b6000816001600160a01b0316610dfe6000611474565b6001600160a01b03161415610e1557506001610763565b506000919050565b600160035460ff166005811115610e3057fe5b14610e4d5760405162461bcd60e51b815260040161082c906124c8565b600554601055610e5b610a7d565b600f55601180546001600160a01b031916738b22f85d0c844cf793690f6d9dfe9f11ddb35449179055600554600e6000610e9481611474565b6001600160a01b03166001600160a01b03168152602001908152602001600020540360096005016000610ec76000611474565b6001600160a01b03168152602081019190915260400160002055600f54601054610ef19101610f4f565b6012556006546040517f62c285e766c871f1c8f15b69db26d7f4ed79769f5ab82248f5cacf97a05c06a891610f2991600f91906126ca565b60405180910390a16003805460ff19908116600217909155600780549091166001179055565b60006002820481610f5f82611bc4565b60145460135460405163095ea7b360e01b81529293506001600160a01b039182169263095ea7b392610f9792169085906004016122ad565b602060405180830381600087803b158015610fb157600080fd5b505af1158015610fc5573d6000803e3d6000fd5b505050506040513d601f19601f82011682018060405250810190610fe99190612158565b6110055760405162461bcd60e51b815260040161082c9061264d565b60135460405163f305d71960e01b8152600091829182916001600160a01b03169063f305d7199087906110709073c7ad46e0b8a400bb3c915120d284aafba8fc47359089906611c37937e07fff19820190655af3107a3fff198601903090600f420190600401612330565b6060604051808303818588803b15801561108957600080fd5b505af115801561109d573d6000803e3d6000fd5b50505050506040513d601f19601f820116820180604052508101906110c2919061221b565b9998505050505050505050565b336000818152600e6020526040808220805490839055905190929183156108fc02918491818181858888f19350505050158015611110573d6000803e3d6000fd5b50336001600160a01b03167f884edad9ce6fa2440d8a54cc123490eb96d2768479d49ff9c7366125a94243648260405161114a91906123cd565b60405180910390a250565b336000908152600c602052604090205460ff166111845760405162461bcd60e51b815260040161082c90612445565b336000818152600e602052604090819020805484019055517fe1fffcc4923d04b559f4d29a8bfc6cda04eb5b0d3c460751c2402c5c5cc9109c9061114a9084906123cd565b60065481565b6015546040516370a0823160e01b81526000916001600160a01b0316906370a0823190611200903090600401612299565b60206040518083038186803b15801561121857600080fd5b505afa15801561122c573d6000803e3d6000fd5b505050506040513d601f19601f8201168201806040525081019061125091906121b1565b905090565b606060096000018054806020026020016040519081016040528092919081815260200182805480156112b057602002820191906000526020600020905b81546001600160a01b03168152600190910190602001808311611292575b5050505050905090565b336001600160a01b037f000000000000000000000000000000000000000000000000000000000000000016146113025760405162461bcd60e51b815260040161082c906125e8565b6109c48282611c80565b600854600780546001600160a01b036101009182900481166000908152600e602090815260408083208054909701909655845484900483168252600a905293909320805460ff191660011790559054600b9261136b9290910416611459565b8154811061137557fe5b600091825260209091200180546001600160a01b03191690556007546008546006546040516101009093046001600160a01b0316927fff8ab71428121b903312f0811ef90ea93038df4601bb6c494a2f185b39c3eb3d926113d792909161228b565b60405180910390a26113e7611ceb565b565b6013546060906001600160a01b031663d06ca61f83610bcc611d22565b6000600560035460ff16600581111561141b57fe5b14806114375750600460035460ff16600581111561143557fe5b145b1561144457506000610ba3565b50600190565b6015546001600160a01b031681565b6001600160a01b03166000908152600d602052604090205490565b60006009600001828154811061148657fe5b6000918252602090912001546001600160a01b031692915050565b6009546000190190565b6003805460ff19166004179055565b60155460135460405163095ea7b360e01b81526000926001600160a01b039081169263095ea7b3926114f4929091169086906004016122ad565b602060405180830381600087803b15801561150e57600080fd5b505af1158015611522573d6000803e3d6000fd5b505050506040513d601f19601f820116820180604052508101906115469190612158565b6115625760405162461bcd60e51b815260040161082c9061264d565b601354604051629d473b60e21b815260009182916001600160a01b03909116906302751cec906115b79073c7ad46e0b8a400bb3c915120d284aafba8fc4735908890869081903090600f420190600401612330565b6040805180830381600087803b1580156115d057600080fd5b505af11580156115e4573d6000803e3d6000fd5b505050506040513d601f19601f8201168201806040525081019061160891906121f8565b909250905061161682611955565b604051910190339082156108fc029083906000818181858888f19350505050158015611646573d6000803e3d6000fd5b509392505050565b61165733610de8565b6116735760405162461bcd60e51b815260040161082c9061254a565b6001600160a01b0381166000818152600e60205260409081902080543490810190915590517fe1fffcc4923d04b559f4d29a8bfc6cda04eb5b0d3c460751c2402c5c5cc9109c91610a71916123cd565b336000908152600c602052604090205460ff166116f25760405162461bcd60e51b815260040161082c90612445565b336000818152600e60205260409081902080543490810190915590517fe1fffcc4923d04b559f4d29a8bfc6cda04eb5b0d3c460751c2402c5c5cc9109c91611739916123cd565b60405180910390a2565b60075461010090046001600160a01b031681565b6014546001600160a01b031681565b60045481565b6001600160a01b03166000908152600e602052604090205490565b6014546040516370a0823160e01b81526000916001600160a01b0316906370a0823190611200903090600401612299565b600554600e60006117c881611474565b6001600160a01b03166001600160a01b031681526020019081526020016000205410156118075760405162461bcd60e51b815260040161082c90612676565b61180f611406565b61182b5760405162461bcd60e51b815260040161082c906125b1565b6118336114a1565b6006541415611844576118446114ab565b6003805460ff1916600190811790915560065460405190917eae53892a7e4a911f143a0d9408a85b5e15f8bed5c739920096daafb3362cce9161173991906123c2565b60006002547f00000000000000000000000000000000000000000000000000000000000000006001600160a01b03166370a08231306040518263ffffffff1660e01b81526004016118d89190612299565b60206040518083038186803b1580156118f057600080fd5b505afa158015611904573d6000803e3d6000fd5b505050506040513d601f19601f8201168201806040525081019061192891906121b1565b10156119465760405162461bcd60e51b815260040161082c906124ff565b610c3d60015460025484611e01565b600080611961836113e9565b60018151811061196d57fe5b602090810291909101015160145460135460405163095ea7b360e01b81529293506001600160a01b039182169263095ea7b3926119b092169087906004016122ad565b602060405180830381600087803b1580156119ca57600080fd5b505af11580156119de573d6000803e3d6000fd5b505050506040513d601f19601f82011682018060405250810190611a029190612158565b611a1e5760405162461bcd60e51b815260040161082c9061264d565b6013546001600160a01b03166318cbafe58483611a39611d22565b30426040518663ffffffff1660e01b8152600401611a5b959493929190612757565b600060405180830381600087803b158015611a7557600080fd5b505af1158015611a89573d6000803e3d6000fd5b505050506040513d6000823e601f3d908101601f19168201604052611ab191908101906120c5565b5092915050565b6040805160028082526060808301845292839291906020830190803683375050601354604080516315ab88c960e31b815290519394506001600160a01b039091169263ad5c464892506004808301926020929190829003018186803b158015611b2057600080fd5b505afa158015611b34573d6000803e3d6000fd5b505050506040513d601f19601f82011682018060405250810190611b589190612001565b81600081518110611b6557fe5b60200260200101906001600160a01b031690816001600160a01b03168152505073c7ad46e0b8a400bb3c915120d284aafba8fc473581600181518110611ba757fe5b6001600160a01b0390921660209283029190910190910152905090565b6000600f420181611bd484610baf565b600181518110611be057fe5b60209081029190910101516013549091506001600160a01b031663fb3bdb418583611c09611ab8565b30876040518663ffffffff1660e01b8152600401611c2a9493929190612722565b6000604051808303818588803b158015611c4357600080fd5b505af1158015611c57573d6000803e3d6000fd5b50505050506040513d6000823e601f3d908101601f1916820160405261164691908101906120c5565b6000600654611c8d6114a1565b0390506000818381611c9b57fe5b06600101905060096002018181548110611cb157fe5b600091825260209091200154600780546001600160a01b0390921661010002610100600160a81b0319909216919091179055610dd361130c565b6006546040517f397602cd08be1b4960422dd722f67856ee9d9282d988fcbfc3004f6a765bb0ce90600090a2600680546001019055565b60408051600280825260608083018452928392919060208301908036833701905050905073c7ad46e0b8a400bb3c915120d284aafba8fc473581600081518110611d6857fe5b6001600160a01b03928316602091820292909201810191909152601354604080516315ab88c960e31b81529051919093169263ad5c4648926004808301939192829003018186803b158015611dbc57600080fd5b505afa158015611dd0573d6000803e3d6000fd5b505050506040513d601f19601f82011682018060405250810190611df49190612001565b81600181518110611ba757fe5b60007f00000000000000000000000000000000000000000000000000000000000000006001600160a01b0316634000aea07f0000000000000000000000000000000000000000000000000000000000000000858786604051602001611e6792919061228b565b6040516020818303038152906040526040518463ffffffff1660e01b8152600401611e94939291906122c6565b602060405180830381600087803b158015611eae57600080fd5b505af1158015611ec2573d6000803e3d6000fd5b505050506040513d601f19601f82011682018060405250810190611ee69190612158565b506000611f078584306000808a815260200190815260200160002054611f4c565b600086815260208190526040902054909150611f2a90600163ffffffff611f8616565b600086815260208190526040902055611f438582611fb2565b95945050505050565b600084848484604051602001611f6594939291906123d6565b60408051601f19818403018152919052805160209091012095945050505050565b600082820183811015611fab5760405162461bcd60e51b815260040161082c9061240e565b9392505050565b60008282604051602001611fc792919061228b565b60405160208183030381529060405280519060200120905092915050565b600060208284031215611ff6578081fd5b8135611fab816127da565b600060208284031215612012578081fd5b8151611fab816127da565b6000806040838503121561202f578081fd5b823567ffffffffffffffff811115612045578182fd5b80840185601f820112612056578283fd5b8035915061206b612066836127ba565b612793565b80838252602080830192508084018982838802870101111561208b578687fd5b8694505b858510156120b65780356120a2816127da565b84526001949094019392810192810161208f565b50909896013596505050505050565b600060208083850312156120d7578182fd5b825167ffffffffffffffff8111156120ed578283fd5b80840185601f8201126120fe578384fd5b8051915061210e612066836127ba565b828152838101908285018585028401860189101561212a578687fd5b8693505b8484101561214c57805183526001939093019291850191850161212e565b50979650505050505050565b600060208284031215612169578081fd5b81518015158114611fab578182fd5b6000806040838503121561218a578182fd5b50508035926020909101359150565b6000602082840312156121aa578081fd5b5035919050565b6000602082840312156121c2578081fd5b5051919050565b600080604083850312156121db578182fd5b8235915060208301356121ed816127da565b809150509250929050565b6000806040838503121561220a578182fd5b505080516020909101519092909150565b60008060006060848603121561222f578081fd5b8351925060208401519150604084015190509250925092565b6000815180845260208085019450808401835b838110156122805781516001600160a01b03168752958201959082019060010161225b565b509495945050505050565b918252602082015260400190565b6001600160a01b0391909116815260200190565b6001600160a01b03929092168252602082015260400190565b600060018060a01b038516825260208481840152606060408401528351806060850152825b81811015612307578581018301518582016080015282016122eb565b818111156123185783608083870101525b50601f01601f19169290920160800195945050505050565b6001600160a01b039687168152602081019590955260408501939093526060840191909152909216608082015260a081019190915260c00190565b600060208252611fab6020830184612248565b6020808252825182820181905260009190848201906040850190845b818110156123b65783518352928401929184019160010161239a565b50909695505050505050565b901515815260200190565b90815260200190565b93845260208401929092526001600160a01b03166040830152606082015260800190565b602081016006831061240857fe5b91905290565b6020808252601b908201527f536166654d6174683a206164646974696f6e206f766572666c6f770000000000604082015260600190565b60208082526057908201527f55736572206e6f742072656769737465726564207769746820746865206b697460408201527f747920706172747920636f6e74726163742c206b696e646c7920636865636b2060608201527f7769746820796f7572206b69747479206b726561746f72000000000000000000608082015260a00190565b60208082526017908201527f4e6f7420696e20636f6c6c656374696f6e207374617465000000000000000000604082015260600190565b6020808252602b908201527f4e6f7420656e6f756768204c494e4b202d2066696c6c20636f6e74726163742060408201526a1dda5d1a0819985d58d95d60aa1b606082015260800190565b60208082526041908201527f596f75206e65656420746f20626520746865206b69747479206b726561746f7260408201527f20746f206465706f736974206f6e20626568616c66206f662061206b697474656060820152603760f91b608082015260a00190565b60208082526019908201527f4b69747479205061727479206973206e6f742041637469766500000000000000604082015260600190565b6020808252601f908201527f4f6e6c7920565246436f6f7264696e61746f722063616e2066756c66696c6c00604082015260600190565b602080825260149082015273496e73756666696369656e742042616c616e636560601b604082015260600190565b6020808252600f908201526e30b8383937bb32903330b4b632b21760891b604082015260600190565b60208082526034908201527f496e73756666696369656e742046756e64732c206b696e646c7920746f7020756040820152731c081d1a19481cdb585c9d0818dbdb9d1c9858dd60621b606082015260800190565b825481526001830154602082015260028301546001600160a01b031660408201526003909201546060830152608082015260a00190565b60008382526040602083015261271a6040830184612248565b949350505050565b60008582526080602083015261273b6080830186612248565b6001600160a01b03949094166040830152506060015292915050565b600086825285602083015260a0604083015261277660a0830186612248565b6001600160a01b0394909416606083015250608001529392505050565b60405181810167ffffffffffffffff811182821017156127b257600080fd5b604052919050565b600067ffffffffffffffff8211156127d0578081fd5b5060209081020190565b6001600160a01b03811681146127ef57600080fd5b5056fea26469706673582212209a738f4dbcd91458ef1607e0638f84bd444406ced41eb16b0ea977cbe8185ba364736f6c63430006070033","abi":[{"inputs":[],"stateMutability":"nonpayable","type":"constructor"},{"anonymous":false,"inputs":[{"indexed":true,"internalType":"address","name":"kittenAddress","type":"address"},{"indexed":false,"internalType":"uint256","name":"amount","type":"uint256"},{"indexed":false,"internalType":"uint256","name":"roundNumber","type":"uint256"}],"name":"CollectedFromKitten","type":"event"},{"anonymous":false,"inputs":[{"indexed":false,"internalType":"bool","name":"completedState","type":"bool"}],"name":"Completed","type":"event"},{"anonymous":false,"inputs":[{"indexed":true,"internalType":"address","name":"_from","type":"address"},{"indexed":false,"internalType":"uint256","name":"_value","type":"uint256"}],"name":"Deposit","type":"event"},{"anonymous":false,"inputs":[{"indexed":true,"internalType":"address","name":"winner","type":"address"},{"indexed":false,"internalType":"uint256","name":"amountWon","type":"uint256"},{"indexed":false,"internalType":"uint256","name":"roundNumber","type":"uint256"}],"name":"LotteryWinner","type":"event"},{"anonymous":false,"inputs":[{"indexed":true,"internalType":"uint256","name":"roundNumber","type":"uint256"}],"name":"RoundCompled","type":"event"},{"anonymous":false,"inputs":[{"components":[{"internalType":"uint256","name":"kreatorSecurity","type":"uint256"},{"internalType":"uint256","name":"kittenPool","type":"uint256"},{"internalType":"address","name":"stakeTokenAddress","type":"address"},{"internalType":"uint256","name":"noOfStakeTokens","type":"uint256"}],"indexed":false,"internalType":"struct KittyParty.StakeInfo","name":"stakeDetails","type":"tuple"},{"indexed":false,"internalType":"uint256","name":"roundNumber","type":"uint256"}],"name":"Staked","type":"event"},{"anonymous":false,"inputs":[{"indexed":false,"internalType":"bool","name":"verificationState","type":"bool"},{"indexed":true,"internalType":"uint256","name":"roundNumber","type":"uint256"}],"name":"Verified","type":"event"},{"anonymous":false,"inputs":[{"indexed":true,"internalType":"address","name":"_to","type":"address"},{"indexed":false,"internalType":"uint256","name":"_value","type":"uint256"}],"name":"Withdraw","type":"event"},{"anonymous":false,"inputs":[{"indexed":false,"internalType":"uint256","name":"amount","type":"uint256"},{"indexed":false,"internalType":"uint256","name":"roundNumber","type":"uint256"}],"name":"WithdrawnFromStaking","type":"event"},{"inputs":[{"internalType":"address","name":"value","type":"address"}],"name":"add","outputs":[{"internalType":"bool","name":"success","type":"bool"}],"stateMutability":"nonpayable","type":"function"},{"inputs":[{"internalType":"uint256","name":"daiAmountIn","type":"uint256"}],"name":"addLiquidityFromDai","outputs":[],"stateMutability":"nonpayable","type":"function"},{"inputs":[{"internalType":"uint256","name":"ethAmountIn","type":"uint256"}],"name":"addLiquidityFromEth","outputs":[{"internalType":"uint256","name":"","type":"uint256"}],"stateMutability":"nonpayable","type":"function"},{"inputs":[],"name":"amountPerRound","outputs":[{"internalType":"uint256","name":"","type":"uint256"}],"stateMutability":"view","type":"function"},{"inputs":[],"name":"amountWon","outputs":[{"internalType":"uint256","name":"","type":"uint256"}],"stateMutability":"view","type":"function"},{"inputs":[],"name":"checkDaiBalance","outputs":[{"internalType":"uint256","name":"","type":"uint256"}],"stateMutability":"view","type":"function"},{"inputs":[],"name":"checkUniBalance","outputs":[{"internalType":"uint256","name":"","type":"uint256"}],"stateMutability":"view","type":"function"},{"inputs":[],"name":"collectFromKittens","outputs":[{"internalType":"uint256","name":"amountCollected","type":"uint256"}],"stateMutability":"nonpayable","type":"function"},{"inputs":[],"name":"collection","outputs":[],"stateMutability":"nonpayable","type":"function"},{"inputs":[],"name":"completeKittyParty","outputs":[],"stateMutability":"nonpayable","type":"function"},{"inputs":[],"name":"currentRound","outputs":[{"internalType":"uint256","name":"","type":"uint256"}],"stateMutability":"view","type":"function"},{"inputs":[],"name":"dai","outputs":[{"internalType":"contract IERC20","name":"","type":"address"}],"stateMutability":"view","type":"function"},{"inputs":[],"name":"deposit","outputs":[],"stateMutability":"payable","type":"function"},{"inputs":[{"internalType":"uint256","name":"amount","type":"uint256"}],"name":"depositAmount","outputs":[],"stateMutability":"payable","type":"function"},{"inputs":[{"internalType":"uint256","name":"amount","type":"uint256"},{"internalType":"address","name":"kitten","type":"address"}],"name":"depositAmountOnBehalfOfKitten","outputs":[],"stateMutability":"payable","type":"function"},{"inputs":[{"internalType":"address","name":"ad","type":"address"}],"name":"getBalance","outputs":[{"internalType":"uint256","name":"","type":"uint256"}],"stateMutability":"view","type":"function"},{"inputs":[{"internalType":"uint256","name":"ethAmount","type":"uint256"}],"name":"getEstimatedDAIforETH","outputs":[{"internalType":"uint256[]","name":"","type":"uint256[]"}],"stateMutability":"view","type":"function"},{"inputs":[{"internalType":"uint256","name":"daiAmount","type":"uint256"}],"name":"getEstimatedETHforDAI","outputs":[{"internalType":"uint256[]","name":"","type":"uint256[]"}],"stateMutability":"view","type":"function"},{"inputs":[{"internalType":"address","name":"ad","type":"address"}],"name":"getIndex","outputs":[{"internalType":"uint256","name":"","type":"uint256"}],"stateMutability":"view","type":"function"},{"inputs":[],"name":"getLength","outputs":[{"internalType":"uint256","name":"","type":"uint256"}],"stateMutability":"view","type":"function"},{"inputs":[],"name":"getList","outputs":[{"internalType":"address[]","name":"","type":"address[]"}],"stateMutability":"view","type":"function"},{"inputs":[],"name":"getStatus","outputs":[{"internalType":"enum KittyParty.KittyPartyState","name":"","type":"uint8"}],"stateMutability":"view","type":"function"},{"inputs":[{"internalType":"uint256","name":"i","type":"uint256"}],"name":"getValueAt","outputs":[{"internalType":"address","name":"","type":"address"}],"stateMutability":"view","type":"function"},{"inputs":[{"internalType":"address[]","name":"memberAddress","type":"address[]"},{"internalType":"uint256","name":"_amountPerRound","type":"uint256"}],"name":"initialize","outputs":[],"stateMutability":"nonpayable","type":"function"},{"inputs":[{"internalType":"address","name":"candidateKreator","type":"address"}],"name":"isKittyKreator","outputs":[{"internalType":"bool","name":"","type":"bool"}],"stateMutability":"nonpayable","type":"function"},{"inputs":[],"name":"isKittyPartyActive","outputs":[{"internalType":"bool","name":"","type":"bool"}],"stateMutability":"nonpayable","type":"function"},{"inputs":[{"internalType":"bytes32","name":"requestId","type":"bytes32"},{"internalType":"uint256","name":"randomness","type":"uint256"}],"name":"rawFulfillRandomness","outputs":[],"stateMutability":"nonpayable","type":"function"},{"inputs":[{"internalType":"uint256","name":"uniAmountOut","type":"uint256"}],"name":"removeLiquidityFromDai","outputs":[],"stateMutability":"nonpayable","type":"function"},{"inputs":[{"internalType":"uint256","name":"uniAmountOut","type":"uint256"}],"name":"removeLiquidityFromEth","outputs":[{"internalType":"uint256","name":"","type":"uint256"}],"stateMutability":"nonpayable","type":"function"},{"inputs":[],"name":"roundDuration","outputs":[{"internalType":"uint256","name":"","type":"uint256"}],"stateMutability":"view","type":"function"},{"inputs":[{"internalType":"uint256","name":"userProvidedSeed","type":"uint256"}],"name":"runLottery","outputs":[{"internalType":"bytes32","name":"requestId","type":"bytes32"}],"stateMutability":"nonpayable","type":"function"},{"inputs":[],"name":"sendMoneyToWinner","outputs":[],"stateMutability":"nonpayable","type":"function"},{"inputs":[],"name":"staked","outputs":[{"internalType":"bool","name":"","type":"bool"}],"stateMutability":"view","type":"function"},{"inputs":[],"name":"uni_token","outputs":[{"internalType":"contract IERC20","name":"","type":"address"}],"stateMutability":"view","type":"function"},{"inputs":[],"name":"uniswapRouter","outputs":[{"internalType":"contract IUniswapV2Router02","name":"","type":"address"}],"stateMutability":"view","type":"function"},{"inputs":[],"name":"verify","outputs":[],"stateMutability":"nonpayable","type":"function"},{"inputs":[],"name":"winnerAddress","outputs":[{"internalType":"address","name":"","type":"address"}],"stateMutability":"view","type":"function"},{"inputs":[{"internalType":"uint256","name":"amount","type":"uint256"}],"name":"withdraw","outputs":[],"stateMutability":"nonpayable","type":"function"},{"inputs":[],"name":"withdrawAll","outputs":[],"stateMutability":"nonpayable","type":"function"},{"inputs":[],"name":"withdrawFromStaking","outputs":[],"stateMutability":"nonpayable","type":"function"},{"stateMutability":"payable","type":"receive"}]}