{
  "_format": "hh-sol-artifact-1",
  "contractName": "LotteryWinner",
  "sourceName": "contracts/LotteryWinner.sol",
  "abi": [
    {
      "inputs": [],
      "stateMutability": "nonpayable",
      "type": "constructor"
    },
    {
      "inputs": [
        {
          "internalType": "address",
          "name": "value",
          "type": "address"
        }
      ],
      "name": "add",
      "outputs": [
        {
          "internalType": "bool",
          "name": "success",
          "type": "bool"
        }
      ],
      "stateMutability": "nonpayable",
      "type": "function"
    },
    {
      "inputs": [],
      "name": "getLength",
      "outputs": [
        {
          "internalType": "uint256",
          "name": "",
          "type": "uint256"
        }
      ],
      "stateMutability": "view",
      "type": "function"
    },
    {
      "inputs": [],
      "name": "getList",
      "outputs": [
        {
          "internalType": "address[]",
          "name": "",
          "type": "address[]"
        }
      ],
      "stateMutability": "view",
      "type": "function"
    },
    {
      "inputs": [
        {
          "internalType": "uint256",
          "name": "userProvidedSeed",
          "type": "uint256"
        }
      ],
      "name": "getRandomNumber",
      "outputs": [
        {
          "internalType": "bytes32",
          "name": "requestId",
          "type": "bytes32"
        }
      ],
      "stateMutability": "nonpayable",
      "type": "function"
    },
    {
      "inputs": [
        {
          "internalType": "uint256",
          "name": "i",
          "type": "uint256"
        }
      ],
      "name": "getValueAt",
      "outputs": [
        {
          "internalType": "address",
          "name": "",
          "type": "address"
        }
      ],
      "stateMutability": "view",
      "type": "function"
    },
    {
      "inputs": [],
      "name": "randomResult",
      "outputs": [
        {
          "internalType": "uint256",
          "name": "",
          "type": "uint256"
        }
      ],
      "stateMutability": "view",
      "type": "function"
    },
    {
      "inputs": [
        {
          "internalType": "bytes32",
          "name": "requestId",
          "type": "bytes32"
        },
        {
          "internalType": "uint256",
          "name": "randomness",
          "type": "uint256"
        }
      ],
      "name": "rawFulfillRandomness",
      "outputs": [],
      "stateMutability": "nonpayable",
      "type": "function"
    },
    {
      "inputs": [],
      "name": "winnerAddress",
      "outputs": [
        {
          "internalType": "address",
          "name": "",
          "type": "address"
        }
      ],
      "stateMutability": "view",
      "type": "function"
    }
  ],
  "bytecode": "0x60c060405234801561001057600080fd5b507fb3dccb4cf7a26f6cf6b120cf5a73875b7bbc655b00000000000000000000000060a0527f01be23585060835e02b77ef475b0cc51aa1e07090000000000000000000000006080527f2ed0feb3e7fd2022120aa84fab1945545a9f2ffc9076fd6156fa96eaff4c131160015567016345785d8a00006002557301be23585060835e02b77ef475b0cc51aa1e070973b3dccb4cf7a26f6cf6b120cf5a73875b7bbc655b61085d6100da600039806102e3528061053452508061036a5280610505525061085d6000f3fe608060405234801561001057600080fd5b50600436106100885760003560e01c8063b37217a41161005b578063b37217a41461015e578063bc6b888b1461017b578063be1c766b146101b4578063ed7a4e0b146101bc57610088565b80630a3b0a4f1461008d57806342619f66146100c7578063942b765a146100e157806394985ddd14610139575b600080fd5b6100b3600480360360208110156100a357600080fd5b50356001600160a01b03166101c4565b604080519115158252519081900360200190f35b6100cf61026d565b60408051918252519081900360200190f35b6100e9610273565b60408051602080825283518183015283519192839290830191858101910280838360005b8381101561012557818101518382015260200161010d565b505050509050019250505060405180910390f35b61015c6004803603604081101561014f57600080fd5b50803590602001356102d8565b005b6100cf6004803603602081101561017457600080fd5b5035610363565b6101986004803603602081101561019157600080fd5b503561045c565b604080516001600160a01b039092168252519081900360200190f35b6100cf610489565b61019861048f565b6001600160a01b03811660009081526006602052604081205460ff16156101ed57506000610268565b50600580546001600160a01b03831660008181526007602090815260408083209490945560069052918220805460ff1916600190811790915583548082018555939092527f036b6384b5eca791c62761152d0c79bb0604c104a5fb6f4eb0703f3154bb3db090920180546001600160a01b0319169092179091555b919050565b60035481565b606060056000018054806020026020016040519081016040528092919081815260200182805480156102ce57602002820191906000526020600020905b81546001600160a01b031681526001909101906020018083116102b0575b5050505050905090565b336001600160a01b037f00000000000000000000000000000000000000000000000000000000000000001614610355576040805162461bcd60e51b815260206004820152601f60248201527f4f6e6c7920565246436f6f7264696e61746f722063616e2066756c66696c6c00604482015290519081900360640190fd5b61035f828261049e565b5050565b60006002547f00000000000000000000000000000000000000000000000000000000000000006001600160a01b03166370a08231306040518263ffffffff1660e01b815260040180826001600160a01b03166001600160a01b0316815260200191505060206040518083038186803b1580156103de57600080fd5b505afa1580156103f2573d6000803e3d6000fd5b505050506040513d602081101561040857600080fd5b505110156104475760405162461bcd60e51b815260040180806020018281038252602b8152602001806107fd602b913960400191505060405180910390fd5b61045660015460025484610501565b92915050565b60006005600001828154811061046e57fe5b6000918252602090912001546001600160a01b031692915050565b60055490565b6004546001600160a01b031681565b600060016104aa610489565b0390506104ce60016104c2848463ffffffff6106c316565b9063ffffffff61072816565b60038190556104dc9061045c565b600480546001600160a01b0319166001600160a01b0392909216919091179055505050565b60007f00000000000000000000000000000000000000000000000000000000000000006001600160a01b0316634000aea07f000000000000000000000000000000000000000000000000000000000000000085878660405160200180838152602001828152602001925050506040516020818303038152906040526040518463ffffffff1660e01b815260040180846001600160a01b03166001600160a01b0316815260200183815260200180602001828103825283818151815260200191508051906020019080838360005b838110156105e65781810151838201526020016105ce565b50505050905090810190601f1680156106135780820380516001836020036101000a031916815260200191505b50945050505050602060405180830381600087803b15801561063457600080fd5b505af1158015610648573d6000803e3d6000fd5b505050506040513d602081101561065e57600080fd5b505060008481526020819052604081205461067e90869085903090610789565b6000868152602081905260409020549091506106a190600163ffffffff61072816565b6000868152602081905260409020556106ba85826107d0565b95945050505050565b600081610717576040805162461bcd60e51b815260206004820152601860248201527f536166654d6174683a206d6f64756c6f206279207a65726f0000000000000000604482015290519081900360640190fd5b81838161072057fe5b069392505050565b600082820183811015610782576040805162461bcd60e51b815260206004820152601b60248201527f536166654d6174683a206164646974696f6e206f766572666c6f770000000000604482015290519081900360640190fd5b9392505050565b60408051602080820196909652808201949094526001600160a01b039290921660608401526080808401919091528151808403909101815260a09092019052805191012090565b60408051602080820194909452808201929092528051808303820181526060909201905280519101209056fe4e6f7420656e6f756768204c494e4b202d2066696c6c20636f6e7472616374207769746820666175636574a26469706673582212206cc7026bef18d824b6b21ae3faa44f82e1314cffdd16524e3e79ecd5e83a4af664736f6c63430006070033",
  "linkReferences": {},
  "deployedLinkReferences": {}
}