{
  "_format": "hh-sol-artifact-1",
  "contractName": "KittyParty",
  "sourceName": "contracts/KittyParty.sol",
  "abi": [
    {
      "inputs": [],
      "stateMutability": "nonpayable",
      "type": "constructor"
    },
    {
      "anonymous": false,
      "inputs": [
        {
          "indexed": true,
          "internalType": "address",
          "name": "kittenAddress",
          "type": "address"
        },
        {
          "indexed": false,
          "internalType": "uint256",
          "name": "amount",
          "type": "uint256"
        },
        {
          "indexed": false,
          "internalType": "uint256",
          "name": "roundNumber",
          "type": "uint256"
        }
      ],
      "name": "CollectedFromKitten",
      "type": "event"
    },
    {
      "anonymous": false,
      "inputs": [
        {
          "indexed": false,
          "internalType": "bool",
          "name": "completedState",
          "type": "bool"
        }
      ],
      "name": "Completed",
      "type": "event"
    },
    {
      "anonymous": false,
      "inputs": [
        {
          "indexed": true,
          "internalType": "address",
          "name": "_from",
          "type": "address"
        },
        {
          "indexed": false,
          "internalType": "uint256",
          "name": "_value",
          "type": "uint256"
        }
      ],
      "name": "Deposit",
      "type": "event"
    },
    {
      "anonymous": false,
      "inputs": [
        {
          "indexed": false,
          "internalType": "bytes32",
          "name": "requestId",
          "type": "bytes32"
        }
      ],
      "name": "LotteryComplete",
      "type": "event"
    },
    {
      "anonymous": false,
      "inputs": [
        {
          "indexed": true,
          "internalType": "address",
          "name": "winner",
          "type": "address"
        },
        {
          "indexed": false,
          "internalType": "uint256",
          "name": "amountWon",
          "type": "uint256"
        },
        {
          "indexed": false,
          "internalType": "uint256",
          "name": "roundNumber",
          "type": "uint256"
        }
      ],
      "name": "LotteryWinner",
      "type": "event"
    },
    {
      "anonymous": false,
      "inputs": [
        {
          "indexed": true,
          "internalType": "uint256",
          "name": "roundNumber",
          "type": "uint256"
        }
      ],
      "name": "RoundCompleted",
      "type": "event"
    },
    {
      "anonymous": false,
      "inputs": [
        {
          "components": [
            {
              "internalType": "uint256",
              "name": "kreatorSecurity",
              "type": "uint256"
            },
            {
              "internalType": "uint256",
              "name": "kittenPool",
              "type": "uint256"
            },
            {
              "internalType": "address",
              "name": "stakeTokenAddress",
              "type": "address"
            },
            {
              "internalType": "uint256",
              "name": "noOfStakeTokens",
              "type": "uint256"
            }
          ],
          "indexed": false,
          "internalType": "struct KittyParty.StakeInfo",
          "name": "stakeDetails",
          "type": "tuple"
        },
        {
          "indexed": false,
          "internalType": "uint256",
          "name": "roundNumber",
          "type": "uint256"
        }
      ],
      "name": "Staked",
      "type": "event"
    },
    {
      "anonymous": false,
      "inputs": [
        {
          "indexed": false,
          "internalType": "bool",
          "name": "verificationState",
          "type": "bool"
        },
        {
          "indexed": true,
          "internalType": "uint256",
          "name": "roundNumber",
          "type": "uint256"
        }
      ],
      "name": "Verified",
      "type": "event"
    },
    {
      "anonymous": false,
      "inputs": [
        {
          "indexed": true,
          "internalType": "address",
          "name": "_to",
          "type": "address"
        },
        {
          "indexed": false,
          "internalType": "uint256",
          "name": "_value",
          "type": "uint256"
        }
      ],
      "name": "Withdraw",
      "type": "event"
    },
    {
      "anonymous": false,
      "inputs": [
        {
          "indexed": false,
          "internalType": "uint256",
          "name": "amount",
          "type": "uint256"
        },
        {
          "indexed": false,
          "internalType": "uint256",
          "name": "roundNumber",
          "type": "uint256"
        }
      ],
      "name": "WithdrawnFromStaking",
      "type": "event"
    },
    {
      "inputs": [
        {
          "internalType": "address",
          "name": "value",
          "type": "address"
        }
      ],
      "name": "add",
      "outputs": [
        {
          "internalType": "bool",
          "name": "success",
          "type": "bool"
        }
      ],
      "stateMutability": "nonpayable",
      "type": "function"
    },
    {
      "inputs": [
        {
          "internalType": "uint256",
          "name": "daiAmountIn",
          "type": "uint256"
        }
      ],
      "name": "addLiquidityFromDai",
      "outputs": [],
      "stateMutability": "nonpayable",
      "type": "function"
    },
    {
      "inputs": [
        {
          "internalType": "uint256",
          "name": "ethAmountIn",
          "type": "uint256"
        }
      ],
      "name": "addLiquidityFromEth",
      "outputs": [
        {
          "internalType": "uint256",
          "name": "",
          "type": "uint256"
        }
      ],
      "stateMutability": "nonpayable",
      "type": "function"
    },
    {
      "inputs": [],
      "name": "amountPerRound",
      "outputs": [
        {
          "internalType": "uint256",
          "name": "",
          "type": "uint256"
        }
      ],
      "stateMutability": "view",
      "type": "function"
    },
    {
      "inputs": [],
      "name": "amountWon",
      "outputs": [
        {
          "internalType": "uint256",
          "name": "",
          "type": "uint256"
        }
      ],
      "stateMutability": "view",
      "type": "function"
    },
    {
      "inputs": [],
      "name": "checkDaiBalance",
      "outputs": [
        {
          "internalType": "uint256",
          "name": "",
          "type": "uint256"
        }
      ],
      "stateMutability": "view",
      "type": "function"
    },
    {
      "inputs": [],
      "name": "checkUniBalance",
      "outputs": [
        {
          "internalType": "uint256",
          "name": "",
          "type": "uint256"
        }
      ],
      "stateMutability": "view",
      "type": "function"
    },
    {
      "inputs": [],
      "name": "collectFromKittens",
      "outputs": [
        {
          "internalType": "uint256",
          "name": "amountCollected",
          "type": "uint256"
        }
      ],
      "stateMutability": "nonpayable",
      "type": "function"
    },
    {
      "inputs": [],
      "name": "collection",
      "outputs": [],
      "stateMutability": "nonpayable",
      "type": "function"
    },
    {
      "inputs": [],
      "name": "completeKittyParty",
      "outputs": [],
      "stateMutability": "nonpayable",
      "type": "function"
    },
    {
      "inputs": [],
      "name": "currentRound",
      "outputs": [
        {
          "internalType": "uint256",
          "name": "",
          "type": "uint256"
        }
      ],
      "stateMutability": "view",
      "type": "function"
    },
    {
      "inputs": [],
      "name": "dai",
      "outputs": [
        {
          "internalType": "contract IERC20",
          "name": "",
          "type": "address"
        }
      ],
      "stateMutability": "view",
      "type": "function"
    },
    {
      "inputs": [],
      "name": "deposit",
      "outputs": [],
      "stateMutability": "payable",
      "type": "function"
    },
    {
      "inputs": [
        {
          "internalType": "uint256",
          "name": "amount",
          "type": "uint256"
        }
      ],
      "name": "depositAmount",
      "outputs": [],
      "stateMutability": "payable",
      "type": "function"
    },
    {
      "inputs": [
        {
          "internalType": "uint256",
          "name": "amount",
          "type": "uint256"
        },
        {
          "internalType": "address",
          "name": "kitten",
          "type": "address"
        }
      ],
      "name": "depositAmountOnBehalfOfKitten",
      "outputs": [],
      "stateMutability": "payable",
      "type": "function"
    },
    {
      "inputs": [
        {
          "internalType": "address",
          "name": "ad",
          "type": "address"
        }
      ],
      "name": "getBalance",
      "outputs": [
        {
          "internalType": "uint256",
          "name": "",
          "type": "uint256"
        }
      ],
      "stateMutability": "view",
      "type": "function"
    },
    {
      "inputs": [
        {
          "internalType": "uint256",
          "name": "ethAmount",
          "type": "uint256"
        }
      ],
      "name": "getEstimatedDAIforETH",
      "outputs": [
        {
          "internalType": "uint256[]",
          "name": "",
          "type": "uint256[]"
        }
      ],
      "stateMutability": "view",
      "type": "function"
    },
    {
      "inputs": [
        {
          "internalType": "uint256",
          "name": "daiAmount",
          "type": "uint256"
        }
      ],
      "name": "getEstimatedETHforDAI",
      "outputs": [
        {
          "internalType": "uint256[]",
          "name": "",
          "type": "uint256[]"
        }
      ],
      "stateMutability": "view",
      "type": "function"
    },
    {
      "inputs": [
        {
          "internalType": "address",
          "name": "ad",
          "type": "address"
        }
      ],
      "name": "getIndex",
      "outputs": [
        {
          "internalType": "uint256",
          "name": "",
          "type": "uint256"
        }
      ],
      "stateMutability": "view",
      "type": "function"
    },
    {
      "inputs": [],
      "name": "getLength",
      "outputs": [
        {
          "internalType": "uint256",
          "name": "",
          "type": "uint256"
        }
      ],
      "stateMutability": "view",
      "type": "function"
    },
    {
      "inputs": [],
      "name": "getList",
      "outputs": [
        {
          "internalType": "address[]",
          "name": "",
          "type": "address[]"
        }
      ],
      "stateMutability": "view",
      "type": "function"
    },
    {
      "inputs": [],
      "name": "getStatus",
      "outputs": [
        {
          "internalType": "enum KittyParty.KittyPartyState",
          "name": "",
          "type": "uint8"
        }
      ],
      "stateMutability": "view",
      "type": "function"
    },
    {
      "inputs": [
        {
          "internalType": "uint256",
          "name": "i",
          "type": "uint256"
        }
      ],
      "name": "getValueAt",
      "outputs": [
        {
          "internalType": "address",
          "name": "",
          "type": "address"
        }
      ],
      "stateMutability": "view",
      "type": "function"
    },
    {
      "inputs": [
        {
          "internalType": "address[]",
          "name": "memberAddress",
          "type": "address[]"
        },
        {
          "internalType": "uint256",
          "name": "_amountPerRound",
          "type": "uint256"
        }
      ],
      "name": "initialize",
      "outputs": [],
      "stateMutability": "nonpayable",
      "type": "function"
    },
    {
      "inputs": [
        {
          "internalType": "address",
          "name": "candidateKreator",
          "type": "address"
        }
      ],
      "name": "isKittyKreator",
      "outputs": [
        {
          "internalType": "bool",
          "name": "",
          "type": "bool"
        }
      ],
      "stateMutability": "view",
      "type": "function"
    },
    {
      "inputs": [],
      "name": "isKittyPartyActive",
      "outputs": [
        {
          "internalType": "bool",
          "name": "",
          "type": "bool"
        }
      ],
      "stateMutability": "view",
      "type": "function"
    },
    {
      "inputs": [
        {
          "internalType": "bytes32",
          "name": "requestId",
          "type": "bytes32"
        },
        {
          "internalType": "uint256",
          "name": "randomness",
          "type": "uint256"
        }
      ],
      "name": "rawFulfillRandomness",
      "outputs": [],
      "stateMutability": "nonpayable",
      "type": "function"
    },
    {
      "inputs": [
        {
          "internalType": "uint256",
          "name": "uniAmountOut",
          "type": "uint256"
        }
      ],
      "name": "removeLiquidityFromDai",
      "outputs": [],
      "stateMutability": "nonpayable",
      "type": "function"
    },
    {
      "inputs": [
        {
          "internalType": "uint256",
          "name": "uniAmountOut",
          "type": "uint256"
        }
      ],
      "name": "removeLiquidityFromEth",
      "outputs": [
        {
          "internalType": "uint256",
          "name": "",
          "type": "uint256"
        }
      ],
      "stateMutability": "nonpayable",
      "type": "function"
    },
    {
      "inputs": [],
      "name": "roundDuration",
      "outputs": [
        {
          "internalType": "uint256",
          "name": "",
          "type": "uint256"
        }
      ],
      "stateMutability": "view",
      "type": "function"
    },
    {
      "inputs": [
        {
          "internalType": "uint256",
          "name": "userProvidedSeed",
          "type": "uint256"
        }
      ],
      "name": "runLottery",
      "outputs": [
        {
          "internalType": "bytes32",
          "name": "requestId",
          "type": "bytes32"
        }
      ],
      "stateMutability": "nonpayable",
      "type": "function"
    },
    {
      "inputs": [],
      "name": "sendMoneyToWinner",
      "outputs": [],
      "stateMutability": "nonpayable",
      "type": "function"
    },
    {
      "inputs": [],
      "name": "staked",
      "outputs": [
        {
          "internalType": "bool",
          "name": "",
          "type": "bool"
        }
      ],
      "stateMutability": "view",
      "type": "function"
    },
    {
      "inputs": [],
      "name": "uni_token",
      "outputs": [
        {
          "internalType": "contract IERC20",
          "name": "",
          "type": "address"
        }
      ],
      "stateMutability": "view",
      "type": "function"
    },
    {
      "inputs": [],
      "name": "uniswapRouter",
      "outputs": [
        {
          "internalType": "contract IUniswapV2Router02",
          "name": "",
          "type": "address"
        }
      ],
      "stateMutability": "view",
      "type": "function"
    },
    {
      "inputs": [],
      "name": "verify",
      "outputs": [],
      "stateMutability": "nonpayable",
      "type": "function"
    },
    {
      "inputs": [],
      "name": "winnerAddress",
      "outputs": [
        {
          "internalType": "address",
          "name": "",
          "type": "address"
        }
      ],
      "stateMutability": "view",
      "type": "function"
    },
    {
      "inputs": [
        {
          "internalType": "uint256",
          "name": "amount",
          "type": "uint256"
        }
      ],
      "name": "withdraw",
      "outputs": [],
      "stateMutability": "nonpayable",
      "type": "function"
    },
    {
      "inputs": [],
      "name": "withdrawAll",
      "outputs": [],
      "stateMutability": "nonpayable",
      "type": "function"
    },
    {
      "inputs": [],
      "name": "withdrawFromStaking",
      "outputs": [],
      "stateMutability": "nonpayable",
      "type": "function"
    },
    {
      "stateMutability": "payable",
      "type": "receive"
    }
  ],
  "bytecode": "0x60c06040526003805460ff19908116909155600060065560078054909116905534801561002b57600080fd5b507f8c7382f9d8f56b33781fe506e897a4f1e2d1725500000000000000000000000060a0527f326c977e6efc84e512bb9c30f76e30c160ed06fb0000000000000000000000006080527f2ed0feb3e7fd2022120aa84fab1945545a9f2ffc9076fd6156fa96eaff4c131160015567016345785d8a0000600255601380546001600160a01b031990811673a5e0829caced8ffdd4de3c43696c57f7d7a678ff17909155601480548216738f3cf7ad23cd3cadbd9735aff958023239c6a06317905560158054909116734a35582a710e1f4b2030a3f826da20bfb6703c0917905573326c977e6efc84e512bb9c30f76e30c160ed06fb738c7382f9d8f56b33781fe506e897a4f1e2d1725561285c61015b600039806112c25280611e6b52508061188d5280611e3c525061285c6000f3fe60806040526004361061023f5760003560e01c8063942b765a1161012e578063c4b09188116100ab578063f7cb789a1161006f578063f7cb789a14610601578063f8b2cb4f14610616578063fb2f895d14610636578063fc735e991461064b578063fe75ff541461066057610246565b8063c4b091881461059c578063ce36a109146105bc578063d0e30db0146105cf578063ed7a4e0b146105d7578063f4b9fa75146105ec57610246565b8063b1434b54116100f2578063b1434b541461051d578063b31610db14610532578063bc6b888b14610552578063be1c766b14610572578063bf428ace1461058757610246565b8063942b765a1461049157806394985ddd146104b3578063a6676ba0146104d3578063ada8b83d146104e8578063afeaac191461050857610246565b806360b5bb3f116101bc578063848836d011610180578063848836d01461041f578063853828b61461043f57806387f8ab26146104545780638a19c8bc1461046757806390704b291461047c57610246565b806360b5bb3f146103885780636339d7cf146103a8578063735de9f7146103c8578063751b323a146103ea5780637de1e5361461040a57610246565b80632e13a30d116102035780632e13a30d146102ef5780632e1a7d4d14610304578063395160ec146103245780634e69d56014610339578063561a5aca1461035b57610246565b80630a3b0a4f1461024b5780630b76619b1461028157806328102e541461029657806329d35328146102b85780632a7b1541146102da57610246565b3661024657005b600080fd5b34801561025757600080fd5b5061026b61026636600461201c565b610680565b60405161027891906123f9565b60405180910390f35b34801561028d57600080fd5b5061026b610768565b3480156102a257600080fd5b506102ab610771565b6040516102789190612404565b3480156102c457600080fd5b506102d86102d33660046121d0565b610777565b005b3480156102e657600080fd5b506102ab6108ec565b3480156102fb57600080fd5b506102d86108f2565b34801561031057600080fd5b506102d861031f3660046121d0565b6109c5565b34801561033057600080fd5b506102ab610a7a565b34801561034557600080fd5b5061034e610ba3565b6040516102789190612431565b34801561036757600080fd5b5061037b6103763660046121d0565b610bac565b60405161027891906123b5565b34801561039457600080fd5b506102d86103a3366004612054565b610c40565b3480156103b457600080fd5b506102d86103c33660046121d0565b610c78565b3480156103d457600080fd5b506103dd610dd6565b60405161027891906122d0565b3480156103f657600080fd5b5061026b61040536600461201c565b610de5565b34801561041657600080fd5b506102d8610e1a565b34801561042b57600080fd5b506102ab61043a3660046121d0565b610f4c565b34801561044b57600080fd5b506102d86110cc565b6102d86104623660046121d0565b611152565b34801561047357600080fd5b506102ab6111c6565b34801561048857600080fd5b506102ab6111cc565b34801561049d57600080fd5b506104a6611252565b60405161027891906123a2565b3480156104bf57600080fd5b506102d86104ce3660046121af565b6112b7565b3480156104df57600080fd5b506102d861130d565b3480156104f457600080fd5b5061037b6105033660046121d0565b6113ea565b34801561051457600080fd5b5061026b611407565b34801561052957600080fd5b506103dd61144b565b34801561053e57600080fd5b506102ab61054d36600461201c565b61145a565b34801561055e57600080fd5b506103dd61056d3660046121d0565b611475565b34801561057e57600080fd5b506102ab6114a2565b34801561059357600080fd5b506102d86114ac565b3480156105a857600080fd5b506102ab6105b73660046121d0565b6114bb565b6102d86105ca366004612200565b61164f565b6102d86116c2565b3480156105e357600080fd5b506103dd611742565b3480156105f857600080fd5b506103dd611756565b34801561060d57600080fd5b506102ab611765565b34801561062257600080fd5b506102ab61063136600461201c565b61176b565b34801561064257600080fd5b506102ab611786565b34801561065757600080fd5b506102d86117b7565b34801561066c57600080fd5b506102ab61067b3660046121d0565b611886565b6001600160a01b0381166000908152600c602052604081205460ff16156106a957506000610763565b50600980546001600160a01b0383166000818152600d6020908152604080832094909455600c8152838220805460ff1916600190811790915585548082019096557f6e1540171b6c0c960b71a7020d9f60077f6af931a8bbf590da0223dacf75c7af90950180546001600160a01b03199081168517909155600b80548088019091557f0175b7a638427703f0dbe7bb9bbf987a2551717b34e79f33b5b1008d1fa01db901805490911684179055918152600e909152908120555b919050565b60075460ff1681565b60085481565b60028104600061078682611954565b60145460135460405163095ea7b360e01b81529293506001600160a01b039182169263095ea7b3926107be92169086906004016122e4565b602060405180830381600087803b1580156107d857600080fd5b505af11580156107ec573d6000803e3d6000fd5b505050506040513d601f19601f82011682018060405250810190610810919061218f565b6108355760405162461bcd60e51b815260040161082c90612684565b60405180910390fd5b60135460405163f305d71960e01b81526001600160a01b039091169063f305d71990839061089290738f3cf7ad23cd3cadbd9735aff958023239c6a0639087906611c37937e07fff1982019085903090600f420190600401612367565b6060604051808303818588803b1580156108ab57600080fd5b505af11580156108bf573d6000803e3d6000fd5b50505050506040513d601f19601f820116820180604052508101906108e49190612252565b505050505050565b60055481565b6012546108fe906114bb565b60088190556007805460ff191690556006546040517f8317d9222511a7f7bc22dd91f4aa793e06ea6613f8aa605607f0bbd091c88aff926109409290916122c2565b60405180910390a1600f54601054111561095957610991565b60646005546066028161096857fe5b04600e600061097681611475565b6001600160a01b031681526020810191909152604001600020555b6064600554606602816109a057fe5b600880549290910490910390556003805460ff1916811790556109c242611886565b50565b336000908152600e6020526040902054808211156109f55760405162461bcd60e51b815260040161082c90612656565b336000818152600e6020526040808220805486900390555184156108fc0291859190818181858888f19350505050158015610a34573d6000803e3d6000fd5b50336001600160a01b03167f884edad9ce6fa2440d8a54cc123490eb96d2768479d49ff9c7366125a942436483604051610a6e9190612404565b60405180910390a25050565b600080610a856114a2565b60055481610a8f57fe5b04905060015b610a9d6114a2565b8111610b9d576000610aae82611475565b6001600160a01b0381166000908152600e60205260409020549091508311610b35576001600160a01b0381166000818152600e602052604090819020805486900390556006549051958501957fda48cb88f08166033de7ce0df8e720f839529e1d13882821a01542fbedd41f5891610b28918891906122c2565b60405180910390a2610b94565b6001600160a01b0381166000818152600e60205260408082208054929055600654905196909101957fda48cb88f08166033de7ce0df8e720f839529e1d13882821a01542fbedd41f5891610b8b918891906122c2565b60405180910390a25b50600101610a95565b50505b90565b60035460ff1690565b6013546060906001600160a01b031663d06ca61f83610bc9611ab7565b6040518363ffffffff1660e01b8152600401610be6929190612738565b60006040518083038186803b158015610bfe57600080fd5b505afa158015610c12573d6000803e3d6000fd5b505050506040513d6000823e601f3d908101601f19168201604052610c3a91908101906120fc565b92915050565b60005b8251811015610c7157610c68838281518110610c5b57fe5b6020026020010151610680565b50600101610c43565b5060055550565b60155460135460405163095ea7b360e01b81526001600160a01b039283169263095ea7b392610cae9291169085906004016122e4565b602060405180830381600087803b158015610cc857600080fd5b505af1158015610cdc573d6000803e3d6000fd5b505050506040513d601f19601f82011682018060405250810190610d00919061218f565b610d1c5760405162461bcd60e51b815260040161082c90612684565b601354604051629d473b60e21b815260009182916001600160a01b03909116906302751cec90610d7190738f3cf7ad23cd3cadbd9735aff958023239c6a063908790869081903090600f420190600401612367565b6040805180830381600087803b158015610d8a57600080fd5b505af1158015610d9e573d6000803e3d6000fd5b505050506040513d601f19601f82011682018060405250810190610dc2919061222f565b9092509050610dd081611bc3565b50505050565b6013546001600160a01b031681565b6000816001600160a01b0316610dfb6000611475565b6001600160a01b03161415610e1257506001610763565b506000919050565b600160035460ff166005811115610e2d57fe5b14610e4a5760405162461bcd60e51b815260040161082c906124ff565b600554601055610e58610a7a565b600f55601180546001600160a01b031916734a35582a710e1f4b2030a3f826da20bfb6703c09179055600554600e6000610e9181611475565b6001600160a01b03166001600160a01b03168152602001908152602001600020540360096005016000610ec46000611475565b6001600160a01b03168152602081019190915260400160002055600f54601054610eee9101610f4c565b6012556006546040517f62c285e766c871f1c8f15b69db26d7f4ed79769f5ab82248f5cacf97a05c06a891610f2691600f9190612701565b60405180910390a16003805460ff19908116600217909155600780549091166001179055565b60006002820481610f5c82611bc3565b60145460135460405163095ea7b360e01b81529293506001600160a01b039182169263095ea7b392610f9492169085906004016122e4565b602060405180830381600087803b158015610fae57600080fd5b505af1158015610fc2573d6000803e3d6000fd5b505050506040513d601f19601f82011682018060405250810190610fe6919061218f565b6110025760405162461bcd60e51b815260040161082c90612684565b60135460405163f305d71960e01b8152600091829182916001600160a01b03169063f305d71990879061106d90738f3cf7ad23cd3cadbd9735aff958023239c6a0639089906611c37937e07fff19820190655af3107a3fff198601903090600f420190600401612367565b6060604051808303818588803b15801561108657600080fd5b505af115801561109a573d6000803e3d6000fd5b50505050506040513d601f19601f820116820180604052508101906110bf9190612252565b9998505050505050505050565b336000818152600e6020526040808220805490839055905190929183156108fc02918491818181858888f1935050505015801561110d573d6000803e3d6000fd5b50336001600160a01b03167f884edad9ce6fa2440d8a54cc123490eb96d2768479d49ff9c7366125a9424364826040516111479190612404565b60405180910390a250565b336000908152600c602052604090205460ff166111815760405162461bcd60e51b815260040161082c9061247c565b336000818152600e602052604090819020805484019055517fe1fffcc4923d04b559f4d29a8bfc6cda04eb5b0d3c460751c2402c5c5cc9109c90611147908490612404565b60065481565b6015546040516370a0823160e01b81526000916001600160a01b0316906370a08231906111fd9030906004016122d0565b60206040518083038186803b15801561121557600080fd5b505afa158015611229573d6000803e3d6000fd5b505050506040513d601f19601f8201168201806040525081019061124d91906121e8565b905090565b606060096000018054806020026020016040519081016040528092919081815260200182805480156112ad57602002820191906000526020600020905b81546001600160a01b0316815260019091019060200180831161128f575b5050505050905090565b336001600160a01b037f000000000000000000000000000000000000000000000000000000000000000016146112ff5760405162461bcd60e51b815260040161082c9061261f565b6113098282611c7f565b5050565b600854600780546001600160a01b036101009182900481166000908152600e602090815260408083208054909701909655845484900483168252600a905293909320805460ff191660011790559054600b9261136c929091041661145a565b8154811061137657fe5b600091825260209091200180546001600160a01b03191690556007546008546006546040516101009093046001600160a01b0316927fff8ab71428121b903312f0811ef90ea93038df4601bb6c494a2f185b39c3eb3d926113d89290916122c2565b60405180910390a26113e8611d22565b565b6013546060906001600160a01b031663d06ca61f83610bc9611d59565b6000600560035460ff16600581111561141c57fe5b14806114385750600460035460ff16600581111561143657fe5b145b1561144557506000610ba0565b50600190565b6015546001600160a01b031681565b6001600160a01b03166000908152600d602052604090205490565b60006009600001828154811061148757fe5b6000918252602090912001546001600160a01b031692915050565b6009546000190190565b6003805460ff19166004179055565b60155460135460405163095ea7b360e01b81526000926001600160a01b039081169263095ea7b3926114f5929091169086906004016122e4565b602060405180830381600087803b15801561150f57600080fd5b505af1158015611523573d6000803e3d6000fd5b505050506040513d601f19601f82011682018060405250810190611547919061218f565b6115635760405162461bcd60e51b815260040161082c90612684565b601354604051629d473b60e21b815260009182916001600160a01b03909116906302751cec906115b890738f3cf7ad23cd3cadbd9735aff958023239c6a063908890869081903090600f420190600401612367565b6040805180830381600087803b1580156115d157600080fd5b505af11580156115e5573d6000803e3d6000fd5b505050506040513d601f19601f82011682018060405250810190611609919061222f565b909250905061161782611954565b604051910190339082156108fc029083906000818181858888f19350505050158015611647573d6000803e3d6000fd5b509392505050565b61165833610de5565b6116745760405162461bcd60e51b815260040161082c90612581565b6001600160a01b0381166000818152600e602052604090819020805485019055517fe1fffcc4923d04b559f4d29a8bfc6cda04eb5b0d3c460751c2402c5c5cc9109c90610a6e908590612404565b336000908152600c602052604090205460ff166116f15760405162461bcd60e51b815260040161082c9061247c565b336000818152600e60205260409081902080543490810190915590517fe1fffcc4923d04b559f4d29a8bfc6cda04eb5b0d3c460751c2402c5c5cc9109c9161173891612404565b60405180910390a2565b60075461010090046001600160a01b031681565b6014546001600160a01b031681565b60045481565b6001600160a01b03166000908152600e602052604090205490565b6014546040516370a0823160e01b81526000916001600160a01b0316906370a08231906111fd9030906004016122d0565b600554600e60006117c781611475565b6001600160a01b03166001600160a01b031681526020019081526020016000205410156118065760405162461bcd60e51b815260040161082c906126ad565b61180e611407565b61182a5760405162461bcd60e51b815260040161082c906125e8565b6118326114a2565b6006541415611843576118436114ac565b6003805460ff1916600190811790915560065460405190917eae53892a7e4a911f143a0d9408a85b5e15f8bed5c739920096daafb3362cce9161173891906123f9565b60006002547f00000000000000000000000000000000000000000000000000000000000000006001600160a01b03166370a08231306040518263ffffffff1660e01b81526004016118d791906122d0565b60206040518083038186803b1580156118ef57600080fd5b505afa158015611903573d6000803e3d6000fd5b505050506040513d601f19601f8201168201806040525081019061192791906121e8565b10156119455760405162461bcd60e51b815260040161082c90612536565b610c3a60015460025484611e38565b600080611960836113ea565b60018151811061196c57fe5b602090810291909101015160145460135460405163095ea7b360e01b81529293506001600160a01b039182169263095ea7b3926119af92169087906004016122e4565b602060405180830381600087803b1580156119c957600080fd5b505af11580156119dd573d6000803e3d6000fd5b505050506040513d601f19601f82011682018060405250810190611a01919061218f565b611a1d5760405162461bcd60e51b815260040161082c90612684565b6013546001600160a01b03166318cbafe58483611a38611d59565b30426040518663ffffffff1660e01b8152600401611a5a95949392919061278e565b600060405180830381600087803b158015611a7457600080fd5b505af1158015611a88573d6000803e3d6000fd5b505050506040513d6000823e601f3d908101601f19168201604052611ab091908101906120fc565b5092915050565b6040805160028082526060808301845292839291906020830190803683375050601354604080516315ab88c960e31b815290519394506001600160a01b039091169263ad5c464892506004808301926020929190829003018186803b158015611b1f57600080fd5b505afa158015611b33573d6000803e3d6000fd5b505050506040513d601f19601f82011682018060405250810190611b579190612038565b81600081518110611b6457fe5b60200260200101906001600160a01b031690816001600160a01b031681525050738f3cf7ad23cd3cadbd9735aff958023239c6a06381600181518110611ba657fe5b6001600160a01b0390921660209283029190910190910152905090565b6000600f420181611bd384610bac565b600181518110611bdf57fe5b60209081029190910101516013549091506001600160a01b031663fb3bdb418583611c08611ab7565b30876040518663ffffffff1660e01b8152600401611c299493929190612759565b6000604051808303818588803b158015611c4257600080fd5b505af1158015611c56573d6000803e3d6000fd5b50505050506040513d6000823e601f3d908101601f1916820160405261164791908101906120fc565b6000600654611c8c6114a2565b0390506000818381611c9a57fe5b06600101905060096002018181548110611cb057fe5b600091825260209091200154600780546001600160a01b0390921661010002610100600160a81b03199092169190911790556040517f60ccf3160e44233450fad3fa63976971ef4d0eab29e4ad451b4d72524b9c98c590611d12908690612404565b60405180910390a1610dd061130d565b6006546040517f0de73690a4c6b6fe902021c5ae286d7c66033d85adcc569a99a208e64864c2e790600090a2600680546001019055565b604080516002808252606080830184529283929190602083019080368337019050509050738f3cf7ad23cd3cadbd9735aff958023239c6a06381600081518110611d9f57fe5b6001600160a01b03928316602091820292909201810191909152601354604080516315ab88c960e31b81529051919093169263ad5c4648926004808301939192829003018186803b158015611df357600080fd5b505afa158015611e07573d6000803e3d6000fd5b505050506040513d601f19601f82011682018060405250810190611e2b9190612038565b81600181518110611ba657fe5b60007f00000000000000000000000000000000000000000000000000000000000000006001600160a01b0316634000aea07f0000000000000000000000000000000000000000000000000000000000000000858786604051602001611e9e9291906122c2565b6040516020818303038152906040526040518463ffffffff1660e01b8152600401611ecb939291906122fd565b602060405180830381600087803b158015611ee557600080fd5b505af1158015611ef9573d6000803e3d6000fd5b505050506040513d601f19601f82011682018060405250810190611f1d919061218f565b506000611f3e8584306000808a815260200190815260200160002054611f83565b600086815260208190526040902054909150611f6190600163ffffffff611fbd16565b600086815260208190526040902055611f7a8582611fe9565b95945050505050565b600084848484604051602001611f9c949392919061240d565b60408051601f19818403018152919052805160209091012095945050505050565b600082820183811015611fe25760405162461bcd60e51b815260040161082c90612445565b9392505050565b60008282604051602001611ffe9291906122c2565b60405160208183030381529060405280519060200120905092915050565b60006020828403121561202d578081fd5b8135611fe281612811565b600060208284031215612049578081fd5b8151611fe281612811565b60008060408385031215612066578081fd5b823567ffffffffffffffff81111561207c578182fd5b80840185601f82011261208d578283fd5b803591506120a261209d836127f1565b6127ca565b8083825260208083019250808401898283880287010111156120c2578687fd5b8694505b858510156120ed5780356120d981612811565b8452600194909401939281019281016120c6565b50909896013596505050505050565b6000602080838503121561210e578182fd5b825167ffffffffffffffff811115612124578283fd5b80840185601f820112612135578384fd5b8051915061214561209d836127f1565b8281528381019082850185850284018601891015612161578687fd5b8693505b84841015612183578051835260019390930192918501918501612165565b50979650505050505050565b6000602082840312156121a0578081fd5b81518015158114611fe2578182fd5b600080604083850312156121c1578182fd5b50508035926020909101359150565b6000602082840312156121e1578081fd5b5035919050565b6000602082840312156121f9578081fd5b5051919050565b60008060408385031215612212578182fd5b82359150602083013561222481612811565b809150509250929050565b60008060408385031215612241578182fd5b505080516020909101519092909150565b600080600060608486031215612266578081fd5b8351925060208401519150604084015190509250925092565b6000815180845260208085019450808401835b838110156122b75781516001600160a01b031687529582019590820190600101612292565b509495945050505050565b918252602082015260400190565b6001600160a01b0391909116815260200190565b6001600160a01b03929092168252602082015260400190565b600060018060a01b038516825260208481840152606060408401528351806060850152825b8181101561233e57858101830151858201608001528201612322565b8181111561234f5783608083870101525b50601f01601f19169290920160800195945050505050565b6001600160a01b039687168152602081019590955260408501939093526060840191909152909216608082015260a081019190915260c00190565b600060208252611fe2602083018461227f565b6020808252825182820181905260009190848201906040850190845b818110156123ed578351835292840192918401916001016123d1565b50909695505050505050565b901515815260200190565b90815260200190565b93845260208401929092526001600160a01b03166040830152606082015260800190565b602081016006831061243f57fe5b91905290565b6020808252601b908201527f536166654d6174683a206164646974696f6e206f766572666c6f770000000000604082015260600190565b60208082526057908201527f55736572206e6f742072656769737465726564207769746820746865206b697460408201527f747920706172747920636f6e74726163742c206b696e646c7920636865636b2060608201527f7769746820796f7572206b69747479206b726561746f72000000000000000000608082015260a00190565b60208082526017908201527f4e6f7420696e20636f6c6c656374696f6e207374617465000000000000000000604082015260600190565b6020808252602b908201527f4e6f7420656e6f756768204c494e4b202d2066696c6c20636f6e74726163742060408201526a1dda5d1a0819985d58d95d60aa1b606082015260800190565b60208082526041908201527f596f75206e65656420746f20626520746865206b69747479206b726561746f7260408201527f20746f206465706f736974206f6e20626568616c66206f662061206b697474656060820152603760f91b608082015260a00190565b60208082526019908201527f4b69747479205061727479206973206e6f742041637469766500000000000000604082015260600190565b6020808252601f908201527f4f6e6c7920565246436f6f7264696e61746f722063616e2066756c66696c6c00604082015260600190565b602080825260149082015273496e73756666696369656e742042616c616e636560601b604082015260600190565b6020808252600f908201526e30b8383937bb32903330b4b632b21760891b604082015260600190565b60208082526034908201527f496e73756666696369656e742046756e64732c206b696e646c7920746f7020756040820152731c081d1a19481cdb585c9d0818dbdb9d1c9858dd60621b606082015260800190565b825481526001830154602082015260028301546001600160a01b031660408201526003909201546060830152608082015260a00190565b600083825260406020830152612751604083018461227f565b949350505050565b600085825260806020830152612772608083018661227f565b6001600160a01b03949094166040830152506060015292915050565b600086825285602083015260a060408301526127ad60a083018661227f565b6001600160a01b0394909416606083015250608001529392505050565b60405181810167ffffffffffffffff811182821017156127e957600080fd5b604052919050565b600067ffffffffffffffff821115612807578081fd5b5060209081020190565b6001600160a01b03811681146109c257600080fdfea2646970667358221220ddbc2c91a017dfdcd80c2317ab85c55569334434e991549c10a98240f265409364736f6c63430006070033",
  "linkReferences": {},
  "deployedLinkReferences": {}
}